:030000000209D919
:0C09D900787FE4F6D8FD758152020A20F8
:100A65003031323334353637383953756E204D6F62
:100A75006E205475657357656420546875724672A7
:100A85006920536174207365740073746F707761A6
:100A95007463683A7331207365742000616C617208
:100AA5006D206D6F64650073313A61646420207355
:100AB500323A706C61636500616C61726D3A005722
:100AC500686F6C6520537065616B3A006F6E006FDF
:030AD50066660052
:0D0B3500C180C18101160002170320C1021A
:100AD800754301754400754564E543604FE5454538
:100AE8004460497580FFC2A77D077C007F077E00B0
:100AF800120DD6C2A5D2A67D057C007F057E001208
:100B08000DD6D2A77D057C007F057E00120DD6A2EA
:100B180087E433F5437D0F7C007F0F7E00120DD6EE
:0C0B2800C2A7E545154570B1154480AD2D
:010B3400229E
:0D0CCB007D007BFF7E001205C57F807E004E
:100CD8008E418F42120AD8C2A7C2A5C2A6854280F9
:100CE8007D057C007F057E00120DD6D2A77D197C7C
:0B0CF800007F197E00120DD6C2A7225B
:100C8A007C007D0A1205EB74652FF582740A3EF525
:060C9A0083E493FF7E00DD
:100CA0008E418F42120AD8C2A7D2A5C2A685428021
:100CB0007D057C007F057E00120DD6D2A77D197CB4
:0B0CC000007F197E00120DD6C2A72293
:100EC9007F017E00120CD87F067E00120CD87F0CA1
:050ED9007E00020CD8B0
:1001D50078217C007A0A798B7F04120CCBAE14AFA0
:1001E50015120C8AAE14AF157C007D0A1205EB744E
:1001F500652DF582740A3C120C997F3A7E00120C2B
:10020500A0AE0AAF0B120C8AAE0AAF0B7C007D0ABA
:100215001205EB74652DF582740A3C120C99E51EE6
:1002250070237F3AFE120CA0AE08AF09120C8AAEFD
:1002350008AF097C007D0A1205EB74652DF5827403
:100245000A3C120C997F207E00120CA07F207E00B4
:10025500120CA0E4F525F526E50D25E025E0246F33
:10026500F582E4340AF583E5822526F582E43583B3
:10027500120C990526E52670020525C39404E5258B
:10028500940040D47FC07E00120CD8AE10AF117C14
:10029500037DE8120C8EAE10AF117C037DE81205CC
:1002A500EB7E007F64CFCDCFCECCCE120C8EAE10C0
:1002B500AF117C007D641205EB7E007F0ACFCDCFA8
:1002C500CECCCE120C8EAE10AF117C007D64120523
:1002D500EB7E007F0ACFCDCFCECCCE1205EB746579
:1002E5002DF582740A3C120C997F2D7E00120CA00C
:1002F500AE0EAF0F120C8AAE0EAF0F7C007D0A1248
:1003050005EB74652DF582740A3C120C997F2D7EE0
:1003150000120CA0AE12AF13120C8AAE12AF137CF2
:10032500007D0A1205EB74652DF582740A3C120CEA
:1003350099E51E640370427F20FE120CA07F207E8B
:1003450000120CA07B007A007921120EDE8E278F19
:1003550028E4F525F526C3E5269528E525952750B6
:100365001874212526F8E6FF3395E0FE120CA0054A
:0903750026E5267002052580DD55
:01037E00225C
:1008740078257C007A0A798F7F12120CCBAE48AFB0
:1008840049120C8AAE48AF497C007D0A1205EB740C
:10089400652DF582740A3C120C997F3A7E00120C85
:1008A400A0AE4EAF4F120C8AAE4EAF4F7C007D0A05
:1008B4001205EB74652DF582740A3C120C997F3A8B
:1008C4007E00120CA0AE4CAF4D120C8AAE4CAF4D54
:1008D4007C007D0A1205EB74652DF582740A3C12C6
:1008E4000C997F3A7E00120CA0E551900A65120C17
:1008F4009C7B007A007925120EDE8E238F247FC024
:100904007E00120CD8E4F521F522C3E5229524E5F6
:10091400219523501874252522F8E6FF3395E0FE2F
:0D092400120CA00522E5227002052180DDE5
:0109310022A3
:10079A0078257C007D007BFF7A0A79A17E007F0B99
:1007AA001205C578307C007D007BFF7A0A79AC7E21
:1007BA00007F11120CD1E54B75F00A84900A65127C
:1007CA000C9CE54B75F00A84E5F0900A65120C9CC6
:1007DA007F3A7E00120CA0E54A75F00A84900A65F9
:1007EA00120C9CE54A75F00A84E5F0900A65120C31
:1007FA009C7B007A007925120EDE8E238F247F8659
:10080A007E00120CD8E4F521F522C3E5229524E5F1
:10081A00219523501874252522F8E6FF3395E0FE2A
:10082A00120CA00522E5227002052180DD7B007AE8
:10083A00007930120EDE8E238F247FC07E00120CC8
:10084A00D8E4F521F522C3E5229524E52195235024
:10085A001874302522F8E6FF3395E0FE120CA00545
:09086A0022E5227002052180DD67
:010873002262
:10001E0078257C007D007BFF7A0A79BD7E007F0704
:10002E001205C5782C7C007D007BFF7A0A79C47E90
:10003E00007F0D1205C578397C007D007BFF7A0AA2
:10004E0079D17E007F031205C5783C7C007D007B54
:10005E00FF7A0A79D47E007F041205C5A203300010
:10006E0001B34008A204300101B3500B120EC9A215
:10007E00039200A2049201120CD4E54B75F00A848F
:10008E00900A65120C9CE54B75F00A84E5F0900A17
:10009E0065120C9C7F3A7E00120CA0E54A75F00AA0
:1000AE0084900A65120C9CE54A75F00A84E5F0907E
:1000BE000A65120C9C7B007A007925120EDE8E23C7
:1000CE008F247F867E00120CD8E4F521F522C3E53D
:1000DE00229524E5219523501874252522F8E6FF54
:1000EE003395E0FE120CA00522E522700205218058
:1000FE00DD300326E4F521F52274392522F8E6FFDA
:10010E003395E0FE120CA00522E52270020521C3F4
:10011E009402E521940040E18024E4F521F5227457
:10012E003C2522F8E6FF3395E0FE120CA00522E5F1
:10013E002270020521C39403E521940040E17B0067
:10014E007A00792C120EDE8E238F247FC07E001251
:10015E000CD8E4F521F522C3E5229524E52195235B
:10016E005018742C2522F8E6FF3395E0FE120CA0F1
:10017E000522E5227002052180DD300425E4F521FB
:10018E00F52274392522F8E6FF3395E0FE120CA015
:10019E000522E52270020521C39402E52194004058
:1001AE00E122E4F521F522743C2522F8E6FF339591
:1001BE00E0FE120CA00522E52270020521C3940375
:0601CE00E521940040E170
:0101D4002208
:100E2F007F387E00120CD87D147C007F147E001258
:100E3F000DD67F0C7E00120CD87D147C007F147EA3
:0B0E4F0000120DD67F067E00020CD8BA
:100DA600E516651E6006120EC9851E16E51E146040
:100DB6000F14601214600714601224047011800965
:0F0DC600120874020D7102079A0201D512001E65
:010DD50022FB
:100E7A00D3E5189400E5179400400DE5181518708D
:0D0E8A00021517C2A4D20222D2A4C2022275
:070B4200011B000219000075
:100E5A00120E97120E2F120E7A120932120DA612C4
:100E6A000D3B120C46AF1B120659E51B60E880FACF
:03000B00020BEDF8
:020BED00C0E066
:100BEF00758C4B758AFF051AE51A70020519641486
:100BFF004519701EF519F51A0509E5097002050862
:100C0F00643C4508700CF508F509050BE50B7002FF
:100C1F00050A30051FE51A20E01A0551E55170024B
:100C2F000550640A4550700CF550F551054DE54DD2
:040C3F007002054CEE
:030C4300D0E032CC
:03001B00020B9144
:100B9100C0E0C0F0C083C082C0D075D000C000C02A
:100BA10001C002C003C004C005C006C007758DC9DD
:100BB100758BFF120E038F1BE552B4010AE51B6012
:100BC10006755200751B00200207E51B6003751BAB
:100BD10004D007D006D005D004D003D002D001D074
:0C0BE10000D0D0D082D083D0F0D0E03221
:100B490002080000020A003B021400170212000505
:0C0B5900020C0003020E000A021007DB71
:100E9700D2AF758911D2A9D28C758C4B758AFFD2C6
:0A0EA700ABD28E758DC9758BFF224A
:100D0300E5115403700EAE10AF11FC7D641205EBB8
:100D1300ED4C701EAE10AF117C007D641205EBED3F
:100D23004C7012AE10AF117C017D901205EBED4CAF
:080D330070037F01227F002202
:10037F00E51E6003020447E50F6402450E7016E5A3
:10038F0013641D4512700E120D03EF7008F50E75F4
:10039F000F030204EFE50F6402450E7017E51364B7
:1003AF001E4512700F120D03BF0109750E00750F58
:1003BF00030204E2E513641F4512702BE50F64047A
:1003CF00450E6018E50F6406450E6010E50F6409D1
:1003DF00450E6008E50F640B450E700B050FE50F1A
:1003EF007002050E0204E2E5136420451260030259
:1003FF0004F4E50F6401450E6033E50F6403450E09
:10040F00602BE50F6405450E6023E50F6407450E6D
:10041F00601BE50F6408450E6013E50F640A450E77
:10042F00600BE50F640C450E60030204F4050FE545
:10043F000F7002050E0204E2E50F6402450E701103
:10044F00E513641D45127009120D03EF70030204CA
:10045F00EFE50F6402450E7010E513641E45127030
:10046F0008120D03BF0102806AE513641F45127065
:10047F0022E50F6404450E6018E50F6406450E6013
:10048F0010E50F6409450E6008E50F640B450E700B
:10049F00028040E51364204512703DE50F6401456D
:1004AF000E6030E50F6403450E6028E50F640545C7
:1004BF000E6020E50F6407450E6018E50F640845D0
:1004CF000E6010E50F640A450E6008E50F640C45D9
:1004DF000E7005751200800AE51364214512700530
:0604EF00F5127513012255
:10093200E51E703AE50B643C450A700CF50AF50BAE
:100942000515E51570020514E515641845147014B3
:10095200F514F5150513E51370020512050DE50DE5
:100962007002050CE50D6407450C70268020E50B2E
:10097200643C450A7004F50AF50BE5156418451444
:100982007004F514F515E50D6407450C7004F50CBB
:10099200F50DD3E513941CE5129400400312037F76
:1009A200E51E7015E50F640D450E701A0511E5116F
:1009B20070020510750E00800AE50F640D450E7079
:1009C20005F50E750F01E511B4340BE510B40806F8
:0709D2007510077511D0221A
:100E0300AF90EF2409601A24FC601124FE600814DB
:100E130070147546018012754602800D7546038075
:0B0E2300087546048003E4F546AF4666
:010E2E0022A1
:100DD600E4FBFAC3EB9FEE6480F8EA648098501C4B
:100DE600900000C3E5829DEC6480F8E583648098FA
:0C0DF6005003A380EE0BBB00010A80D765
:010E020022CD
:090B6500011E00011C00011D002D
:020659008F21EF
:10065B00E51E14602F14605114700302070214700E
:10066B000302077724046003020799E52124FE6047
:10067B000914600A14600A020799751E0422051EEC
:10068B0022020791E52124FE6010146013146016FA
:10069B0024036003020799B20522120EF302078DA1
:1006AB00120EF3051E22020791E52124FE6034147D
:1006BB00603F14603F24036003020799E51D14603B
:1006CB0014046003020799054BE54B6418600302A1
:1006DB000799F54B22054AE54A643C6003020799EA
:1006EB00F54A22051DE51D64026003020799F51DFD
:1006FB0022051E22020791C2A9E52124FE6058148F
:10070B00606014606524036003020799E51C1460A4
:10071B001914601F14602514602B146031240570AC
:10072B006D0515E5157067051422050BE50B7002B9
:10073B00050A22050DE50D7002050C220511E511C8
:10074B007002051022050FE50F7002050E2205132E
:10075B00E5137002051222051CE51C6406702FF5CB
:10076B001C22E4F51EF51CD2A922801AE52124FED9
:10077B00600D14600D14600E24037012B20322B2CC
:0E078B000422E4F51E22751703751820D20211
:01079900223D
:100B6E00C10502480000024E0000024C0000025077
:100B7E000000C103014B00014A00015200C10401F3
:020B8E004764BA
:100D7100E54D643C454C700CF54CF54D054FE54F88
:100D81007002054EE54F643C454E700CF54EF54F33
:100D91000549E54970020548E54964644548700420
:050DA100F548F54922B0
:100EF300C205E4F548F549F54EF54FF54CF54DF5CA
:040F030050F5512232
:100EB100E54BB51510E4B5140CE54AB50B07E4B5DF
:080EC1000A037F01227F0022D9
:100C460030030B120EB1BF0105755201C203E4FF5A
:100C5600FEE4FDFCE552B40104C2A38007D2A3E47E
:100C6600F552800B0DBD00010CBC03E8BDE8E5E5BF
:100C760052600B0FBF00010EBE03D6BFE8D3D2A34E
:030C8600E4F55240
:010C89002248
:100F0700C2A37D907C017F907E01120DD6D2A322D1
:100D3B00300419E50B450A7013E547B4640EE5154D
:100D4B00451470057547188003851547300416E563
:100D5B004764646010E547D394004006120F0715F3
:050D6B004722754764FA
:010D70002260
:1009E500020E5AE493A3F8E493A34003F68001F2C0
:1009F50008DFF48029E493A3F85407240CC8C33313
:100A0500C4540F4420C8834004F456800146F6DFE1
:100A1500E4800B0102040810204080900B35E47E31
:100A2500019360BCA3FF543F30E509541FFEE493D6
:100A3500A360010ECF54C025E060A840B8E493A39D
:100A4500FAE493A3F8E493A3C8C582C8CAC583CAC8
:100A5500F0A3C8C582C8CAC583CADFE9DEE780BE80
:010B90000064
:1004F500E709F608DFFA8046E709F208DFFA803EE9
:1005050088828C83E709F0A3DFFA8032E309F608D5
:10051500DFFA8078E309F208DFFA807088828C833D
:10052500E309F0A3DFFA806489828A83E0A3F608F1
:10053500DFFA805889828A83E0A3F208DFFA804CCB
:1005450080D280FA80C680D4806980F280338010A2
:1005550080A680EA809A80A880DA80E280CA80330B
:1005650089828A83ECFAE493A3C8C582C8CCC58383
:10057500CCF0A3C8C582C8CCC583CCDFE9DEE78053
:100585000D89828A83E493A3F608DFF9ECFAA9F0D2
:10059500EDFB2289828A83ECFAE0A3C8C582C8CC28
:1005A500C583CCF0A3C8C582C8CCC583CCDFEADE41
:1005B500E880DB89828A83E493A3F208DFF980CCA3
:1005C50088F0EF60010E4E60C388F0ED2402B4049C
:1005D5000050B9F582EB2402B4040050AF23234543
:0605E5008223900545731E
:1005EB00BC000BBE0029EF8DF084FFADF022E4CCF4
:1005FB00F875F008EF2FFFEE33FEEC33FCEE9DECBD
:10060B00984005FCEE9DFE0FD5F0E9E4CEFD22ED02
:10061B00F8F5F0EE8420D21CFEADF075F008EF2F4C
:10062B00FFED33FD4007985006D5F0F222C398FD3D
:05063B000FD5F0EA22DA
:100EDE00E4FFFE120640600C0FEF70010E09E97080
:050EEE00F20A80EF2272
:10064000BB010689828A83E0225002E722BBFE02B8
:09065000E32289828A83E49322EB
:00000001FF
